:020000040800F2
:1000000088C60020E96D0008350D0008370D00088E
:10001000390D00083B0D00083D0D000800000000F0
:100020000000000000000000000000001D030008A8
:100030003F0D00080000000071030008016C00087B
:10004000036E0008036E0008036E0008036E0008CC
:10005000036E0008036E0008036E0008036E0008BC
:10006000036E0008036E0008036E0008036E0008AC
:10007000036E0008036E0008036E0008036E00089C
:10008000036E0008036E0008036E0008036E00088C
:10009000036E0008036E0008036E0008036E00087C
:1000A000036E0008036E0008036E0008036E00086C
:1000B000036E000851620008036E0008036E00081A
:1000C000036E0008036E0008036E0008036E00084C
:1000D000036E00087D6D0008036E00086F6700085E
:1000E000036E0008036E0008036E0008036E00082C
:1000F000036E0008036E0008036E0008036E00081C
:10010000036E0008036E0008036E0008036E00080B
:10011000036E0008036E0008036E0008036E0008FB
:10012000036E0008036E0008036E0008036E0008EB
:10013000036E0008036E0008036E0008036E0008DB
:10014000036E0008036E0008036E0008036E0008CB
:10015000036E0008036E0008036E0008036E0008BB
:10016000036E0008036E0008036E0008036E0008AB
:10017000036E0008036E0008036E0008036E00089B
:10018000036E0008036E000800F002F800F0B6F8F5
:100190000AA090E8000C82448344AAF10107DA45E2
:1001A00001D100F0ABF8AFF2090EBAE80F0013F07E
:1001B000010F18BFFB1A43F001031847B860040091
:1001C000D86004000A444FF0000C10F8013B13F013
:1001D000070408BF10F8014B1D1108BF10F8015BA0
:1001E000641E05D010F8016B641E01F8016BF9D193
:1001F00013F0080F1EBF10F8014BAD1C0C1B09D1EA
:100200006D1E58BF01F801CBFAD505E014F8016B5B
:1002100001F8016B6D1EF9D59142D6D370470000ED
:100220000023002400250026103A28BF78C1FBD8FF
:10023000520728BF30C148BF0B6070476E291FF0BE
:10024000958170291EF04186662921F0218165295A
:1002500021F01E81672921F01B81612921F01A817B
:1002600003681B0A28BF41F0800169291EF0B2858E
:1002700064291EF0AF8575291EF0AC856F291FF02B
:10028000948278291EF00D86E9291FF02F82E42937
:100290001FF02C82F5291FF02982EF291FF091828F
:1002A000F8291EF00C860368DB0928BF41F08001A5
:1002B00063291FF09E8173291FF0A381E3291FF09A
:1002C0008986F3291FF08E86002070471FB521F024
:1002D000DAF89DE803001FF04FF81FF0E1FE04007C
:1002E0000020002120F022FC401C60600020002142
:1002F00020F006FCE0601FBD10B510BD1FF0A2FE8F
:100300001146FFF7E3FF00F066FC1FF07FFF03B428
:10031000FFF7F2FF03BC06F0D7FC00002A4B196878
:100320000868B0E8F04F80F30988BFF36F8F4FF093
:10033000000080F311887047000000000648006844
:10034000006880F3088862B661B6BFF34F8FBFF3D1
:100350006F8F00DF00BF00BF08ED00E0DFF80C008A
:10036000016841F470010160704700BF88ED00E052
:10037000EFF30980BFF36F8F134B1A681EF0100F55
:1003800008BF20ED108A20E9F04F106008B44FF04C
:10039000500080F31188BFF34F8FBFF36F8F1DF0B4
:1003A00013F94FF0000080F3118808BC1968086841
:1003B000B0E8F04F1EF0100F08BFB0EC108A80F3C9
:1003C0000988BFF36F8F7047AC040020EFF30580FE
:1003D0007047000010B54FF4FA74204606F04BFC4D
:1003E000132006F00BFB204606F045FCBDE810404C
:1003F000132006F003BB0024F84D286D002873D0AD
:1004000000235A1E19461CF00EFA0446012CF4D1A2
:100410006868A0F59C41203907D00146F0A01EF085
:100420008DFC686800F084FE01E000F088FEA8689A
:100430000B28E2D2DFE800F006070F171F272F373F
:100440003F474F00D9E74FF4817006F0D3FAE7A099
:100450001EF074FCD1E740F2031006F0CBFAE5A0E1
:100460001EF06CFCC9E74FF4827006F0C3FAE2A0FC
:100470001EF064FCC1E740F2011006F0BBFADFA0F9
:100480001EF05CFCB9E740F2051006F0B3FADCA000
:100490001EF054FCB1E74FF4837006F0ABFAD9A01C
:1004A0001EF04CFCA9E740F2071006F0A3FAD6A014
:1004B0001EF044FCA1E74FF4847006F09BFAD3A031
:1004C0001EF03CFC99E740F2091006F093FAD0A028
:1004D0001EF034FC91E74FF4887006F08BFACDA043
:1004E0001EF02CFC89E7FFE7002C86D101201CF0D0
:1004F00097FF82E7032006F081FA01201CF090FFAD
:10050000FBE708B501274FF00008B44CC34D44F693
:100510002066DFF80C9391E0E068B04236D12069A4
:10052000B04233D1C4F82480606A05EB4011896978
:1005300001290FD104F01CF860B1BAA0616A1EF065
:10054000FDFB606AE0600620A0606946206D1CF03B
:10055000D7FA16E0606A05EB4011896989B904F0A1
:1005600021F870B1606A05EB40118F612061606015
:100570000720A0606946206D1CF0C2FAB4A01EF0EE
:10058000DDFB606A401C60621428CDD3E068B04295
:100590003BD06069B0420AD1B4480022072100680C
:1005A0000AF0D6F902206061B1A01EF0C7FB6069B5
:1005B000012801D0B8B128E0B2A01EF0BFFBE0686E
:1005C000002205EB4011B3A000F0F2FC9348E16873
:1005D00000F0E4FC0A20A0606661E6606946206DD8
:1005E0001CF08EFA11E0ADA01EF0A8FBE068606080
:1005F000A7606661E6606946206D1CF081FAA06B19
:100600001DF075F8606C1DF00BF82069B04212D037
:1006100003F0AEFF78B1206905EB4010C0F81880F8
:100620002661A2A01EF08AFB66600920A0606946D0
:10063000206D1CF065FA01201CF0F2FED9F80000D4
:10064000B042A3D168E701201CF0EAFEFBE708B541
:10065000724D624C30E000228EA0216A00F0A8FCAE
:100660006E48616800F09AFC606805EB401193A049
:100670001EF064FB00206062606A05EB401194A0EC
:10068000D1E905231EF05AFB606A401C606209280C
:10069000F2D944F6206060600920A0601421206A2D
:1006A0001EF0C0FD6946206D1CF02AFA5C490B2043
:1006B000086001201CF0B4FE606803F059FF0028B8
:1006C000F7D0C8E708B50826444C44F620650A2749
:1006D000DFF84C8116E085A01EF030FB01226DA0F2
:1006E000216A00F065FC6560A6601421206A1EF096
:1006F00099FD6946206D1CF003FAC8F800700120CE
:100700001CF08EFE606803F04DFF0028F7D0E2E792
:1007100008B54FF00008414F304C44F62066404D7C
:1007200055E13E4800F022FC6060B04219D002461C
:100730003A48216A00F027FC606807EB401170A07E
:100740001EF0FCFAC4F82480606A07EB401170A028
:10075000D1E905231EF0F2FA606A401C60620928A4
:10076000F2D92E48216A00F055FC60600120A0609B
:100770006946206D1CF0C4F9A06B1CF0B8FF606CDA
:100780001CF04EFF01201CF04BFE1CE12348216AA7
:1007900000F040FC60600220A0606946206D1CF003
:1007A000AFF9E06B1CF0A3FF606C1CF039FF012077
:1007B0001CF036FE07E11948216A00F02BFC60604E
:1007C0000320A0606946206D1CF09AF9E06B1CF0D4
:1007D0008EFF606C1CF024FFF5E00000000000209C
:1007E0006C65646F6E3A2025640D0A006D75310DDD
:1007F0000A0000006D7532006D7533006D753400B0
:100800006D7535006D7536006D7537006D75380086
:100810006D7539006D753130000000002005002035
:1008200070040020C8A1B3F6CAE9BCAEB4EDCEF3A3
:10083000D3EFD2F4CCE1CABE2D2D2D2D2D657272D1
:100840006F725F696E6465783A2025640D0A000056
:10085000B7C5D6C3CAE9BCAEB4EDCEF3D3EFD2F47C
:10086000CCE1CABE2D2D2D2D2D0D0A0084040020B3
:100870002D2D2D2D2D73656E64206576656E740D9E
:100880000A0000002D2D2D2D313131313131310D46
:100890000A000000626F6F6B000000002D2D2D2DEF
:1008A000323232323232320D0A0000002D2D2D2D1F
:1008B000333333333333330D0A000000C8A1B3F6AA
:1008C000B3C9B9A6A3BA25732D2D2D2D0D0A00008D
:1008D0000D0A313A257320202020323A2564202049
:1008E0002020333A25640D0A00000000CAE9BCAE9E
:1008F000B7C5D6C3B3C9B9A62D2D2D2D0D0A00003D
:10090000CCEDBCD3B3C9B9A6A3BA25730D0A0000B8
:100910000D0A626F6F6B49643A25732020202032E4
:100920003A256420202020333A25640D0A00000077
:10093000B84800F01BFB6060B0421BD00246B548CF
:10094000216A00F020FB606807EB4011AFF2500015
:100950001EF0F4F9C4F82480606A07EB4011AFF28E
:100960005000D1E905231EF0E9F9606A401C60627D
:100970000928F1D9A748216A00F04CFB60600520E6
:10098000A0606946206D1CF0BBF8A06B1CF0AFFEA8
:10099000606C1CF045FE01201CF042FD13E0A06BD2
:1009A0001CF03EFE606C1CF0A2FE0CE0E06B1CF044
:1009B00037FE606C1CF09BFE05E0206C1CF030FEE6
:1009C000606C1CF094FE2E6001201CF029FD28684C
:1009D0000D28F8D2DFE800F00E0D0C0B0A0E0E0EFB
:1009E0000E0E09080700E8E7E0E7D8E7A0E7E2E62F
:1009F000CCE696E6E7E7884D884C012654E0AFF256
:100A00006C1187481EF03AFB00284AD0844985A023
:100A10001EF094F9AFF284114FF4967005F00DFEBC
:100A2000A06183A283A1E36905F076FF80A282A181
:100A3000236AA06905F070FF81A1E0691EF03CFC0B
:100A400078B182A1E0691EF037FC78B182A1E0693B
:100A50001EF032FC88B182A1E0691EF02DFC98B135
:100A600018E082A01EF06AF92E6013E083A0216ACC
:100A70001EF064F9022028600CE086A0216A1EF0B6
:100A80005DF90320286005E088A0216A1EF056F970
:100A9000042028601421E0691EF0C4FB267005F0D4
:100AA0007BFD01201CF0BCFC5D481EF01DFB0028F6
:100AB000F7D0A4E7834C00206168884711F0ACFDB3
:100AC00001201CF0ADFCF6E77CB51DF051FF0322C0
:100AD000002101201BF0ACFC504C2065012104F1E9
:100AE00030000023CDE900108D022A4676A1AFF236
:100AF0003B001CF0A6FA032104F13400CDE90010FC
:100B00000023802273A1AFF211101CF09AFA0A217F
:100B100004F12C00CDE900100023802270A1AFF277
:100B20000F401CF08EFA042104F13800CDE90010CA
:100B3000002380226DA1AFF273401CF082FA0521E0
:100B400004F13C00CDE90010002380226AA1AFF23D
:100B500001501CF076FA062104F14000CDE90010A6
:100B60000023802264A1AFF221501CF06AFA072111
:100B700004F14400CDE9001000232A4661A1AFF240
:100B80007D601CF05EFA082104F14800CDE90010F8
:100B9000002380225EA1AFF2A3601CF052FA09216B
:100BA00004F14C00CDE90010002380225BA1AFF2DC
:100BB000B9701CF046FAA06B1CF032FDE06B1CF023
:100BC0002FFD206C1CF02CFDA06A1CF083FABDE800
:100BD0007C401DF0E7BE1CB500F07AF9FFF7FAFB88
:100BE00014201EF061F80D4CE06114201EF05CF83A
:100BF0002062012104F12800CDE9001000238022A9
:100C000049A1AFF23B101CF01CFA1CF02BFE002097
:100C10001CBD000020050020700400200000002002
:100C2000AE070020CFFBCFA23A2025730D0A0000AB
:100C300022000000636D6400626F6F6B4964000006
:100C400070757368626F6F6B0000000072656D6F86
:100C50007665626F6F6B0000707265626F6F6B001C
:100C600072657475726E626F6F6B0000D5FDD4DAB9
:100C7000B7C5CAE92D2D2D2D0D0A0000BFAACABC8B
:100C8000C8A1B3F6CAE9BCAE2D2D2D2D3A2025738F
:100C90000D0A0000BFAACABCD4A4C0C0CAE9BCAE39
:100CA0003A2025732D2D2D2D2D0D0A00BFAACABC6B
:100CB000B9E9BBB9CAE9BCAE3A2025732D2D2D2D5B
:100CC0002D0D0A00740000207461736B315F746134
:100CD000736B00007461736B325F7461736B00003F
:100CE0007461736B305F7461736B00007461736B5C
:100CF000335F7461736B00007461736B345F746194
:100D0000736B00007461736B355F7461736B00000B
:100D10007461736B365F7461736B00007461736B25
:100D2000375F7461736B000073746172745F746118
:100D3000736B00007047FEE7FEE7FEE7FEE77047D3
:100D40000CB50022019200925849086840F48030A6
:100D500008604FF4A043086800F400300090019848
:100D6000401C0190009810B901989842F3D108688E
:100D7000800302D50120009000E000920098012835
:100D800031D14A484030026842F0805202604848FF
:100D9000026842F44042026044480830026802603F
:100DA000026842F400420260026842F4A05202600B
:100DB000021F404B13600A6842F080720A600A68A2
:100DC0009201FCD53C4A40F205711160016821F0A6
:100DD00003010160016841F0020101600168C1F393
:100DE00081010229FAD10CBD10B53448016841F4E3
:100DF000700101602D48016841F0010101602B4A3A
:100E000000210832116002682D4B1A400260031D58
:100E10002C4A1A60026822F48022026023480C30B7
:100E20000160FFF78DFF25494FF0006080390860B1
:100E300010BD70B51D4E0836306800F00C00224B16
:100E4000224900280FD05D1004280ED008280ED0AB
:100E50000B6030681D4AC0F30310121D105C0A6855
:100E6000C2400A6070BD0B60F3E70D60F1E70F4A06
:100E7000121D1068C0F38054106800F03F0034B1B8
:100E8000B5FBF0F01368C3F38813584305E0B3FBD8
:100E9000F0F01368C3F3881358431268C2F3014299
:100EA000521C5200B0FBF2F00860D2E7003802405A
:100EB0000070004008544007003C024088ED00E00C
:100EC000FFFFF6FE103000240024F4005400002040
:100ED00010B54FF4407005F0A7FFA82005F09AFE6A
:100EE0004FF4E134204605F0F7FE00F0E7F803F098
:100EF000D9FA05F031FB4FF4165005F025FE2046D7
:100F000005F08CFD0EA01DF019FF11A1154805F08C
:100F1000F6FD00F0D2FC05F0ADF9134800688047FB
:100F2000532140F2E73005F03FF909F087F91AF054
:100F3000DAFC1AF014FDBDE810401BF0F5B8000013
:100F400065737020696E69740D0A0D0A0000000057
:100F5000486172647761726520696E6974204F4BD5
:100F60000D0A00000010014074000020014600201E
:100F700001EB40129269002A04D0401C0928F7DBDB
:100F800044F62060704770B5154600EB45142046C6
:100F90001EF086F865610120A06170BD10B500EB00
:100FA0004110044614211EF05FF90020A06110BD1D
:100FB00070B59AB006460D46144605F0EDFA2B467C
:100FC00032461DA101A800941DF0C4FE2AA101A86B
:100FD00005F0FAFA0028F9D14FF4FA7005F04BFE4B
:100FE0001AB070BD30B599B004460D4605F0D4FA7C
:100FF0002B46224621A168461DF0ACFE1EA1684684
:1010000005F0E2FA0028F9D14FF4FA7005F033FE4A
:1010100019B030BD70B505460E46002405EB4410EE
:1010200031461EF049F928B1641C092CF6DD44F65E
:10103000206070BD204670BD41542B4D515454501A
:1010400055423D302C222573222C227B5C22696480
:101050005C223A205C2225735C225C2C5C22626F4D
:101060006F6B41636B5C223A205C2225645C227DBD
:10107000222C312C300D0A004F4B000041542B4DD7
:101080005154545055423D302C222573222C227B42
:101090005C2269645C223A205C2225735C225C2C11
:1010A0005C22626F6F6B41636B5C223A205C223082
:1010B0005C227D222C312C300D0A00007CB50121F0
:1010C000242006F0F6FB4FF4C064009401208DF854
:1010D000040000228DF8062003228DF805208DF8EB
:1010E0000700224D6946284605F090FF2146284614
:1010F00005F0F4FF640000941D4D6946284605F094
:1011000085FF2146284605F0EBFF7CBD19490120EB
:101110000860704717490020086070471549012092
:10112000091D0860704713490020091D08607047B9
:10113000002802D0012801D1F5E7EBE7704700B5A0
:10114000FFF7E4FF5DF804EBE8E70B49002807D060
:10115000012804D1D1F8AC02C043C1F8AC027047F9
:10116000D1F8A802C043C1F8A80270470014024099
:1011700000080240A48242420000414201B5BDF88D
:1011800000000090BDF80000FE49088008BD01B5D0
:10119000BDF800000090BDF80000FA49891C0880E5
:1011A00008BD08B5F748801C00880090BDF8000015
:1011B00008BDF44A10805180704710B5FFF7DEFF7C
:1011C000052005F03FFDBDE81040EAE7EE48ED4997
:1011D000008908807047EB49891C08807047C0F37C
:1011E0004511C20AC00200EB4110104480B27047A2
:1011F000401EC0B2FCD27047F0B502460C46E24D2C
:10120000260A2846A988170A4089A1F5C853633BD6
:1012100015D0A1F5AA43103B4ED0FFF7AFFF3846DB
:10122000FFF7B5FFD0B2FFF7B2FFA889FFF7A6FF1F
:101230003046FFF7ACFFE0B2BDE8F040A7E7A97980
:1012400039B3FFF79BFF3846FFF7A1FFD0B2FFF796
:101250009EFF2888401EC0F30F20FFF798FF2878D4
:10126000401EC0B2FFF793FFA889FFF787FF304603
:10127000FFF78DFFE0B2FFF78AFF6888401EC0F3DA
:101280000F20FFF784FFA878BDE8F040401EC0B2F1
:101290007DE72988891A491E8AB2FFF76FFF00206F
:1012A000FFF775FF0020FFF772FF100AFFF76FFFCF
:1012B000D0B2FFF76CFFD7E7FFF760FF3846FFF7C4
:1012C00066FF6889401C80B2FFF758FFD0B2FFF775
:1012D0005EFFA889FFF752FF3046FFF758FFA88945
:1012E000401C80B2FFF74AFFE0B2BDE8F0404EE795
:1012F00010B5A54C2288824202D962888A4201D860
:10130000002010BDFFF778FFA088A0F5AA41103992
:101310001BD02E20FFF732FFFFF743FFA188A1F576
:10132000C852633AEDD0FFF73CFF0146FFF739FFA3
:10133000CAB24FF6FF7303EA02226FF30A01920A60
:1013400041EA421141EAD02010BD4FF43850FFF776
:1013500015FFE1E78C488088A0F5AA41103901D03B
:1013600029200BE74FF4245008E787488088A0F530
:10137000AA41103901D0282000E74FF42050FDE6A3
:1013800070B50023804C41F663162146A279898806
:10139000012A01D1B14202D1C2B9B14216D1082805
:1013A00014D2DFE800F00406080A0C0E1012062022
:1013B0000CE007200AE0042008E0052006E00120F8
:1013C00004E0002002E0032000E00220082812D2FE
:1013D000DFE800F0110406080A0C0E1080230AE072
:1013E000402308E0C02306E0202304E0602302E05D
:1013F000A02300E0E02345F21055A94202D14FF4AA
:10140000585000E03620A1F51342413A03D0A1F52F
:10141000EE42893A01D143F008031946FFF7C9FEAD
:10142000A288B2420ED0980606D5208861888842EC
:1014300008D22180608005E020886188884201D937
:1014400021806080AA4246D16089FFF797FE002084
:10145000FFF79DFE6089401C80B2FFF78FFE0020E1
:10146000FFF795FE6089801C80B2FFF787FE208819
:10147000401EC0F30F20FFF78AFE6089C01C80B2B7
:10148000FFF77CFE2078401EC0B2FFF780FEA089E7
:10149000FFF774FE0020FFF77AFEA089401C80B29F
:1014A000FFF76CFE0020FFF772FEA089801C80B25F
:1014B000FFF764FE6088401EC0F30F20FFF767FE51
:1014C000A089C01C80B2FFF759FEA078BDE870402B
:1014D000401EC0B25BE66089FFF750FE0020FFF7B8
:1014E00056FE0020FFF753FE2088401EC0F30F2059
:1014F000FFF74DFE2078401EC0B2FFF748FEA089DE
:10150000FFF73CFE0020FFF742FE0020FFF73FFE02
:101510006088401EC0F30F20FFF739FEA078BDE8B9
:101520007040401EC0B232E600B5FFF765FEFFF71F
:101530004DFE16481349891C0088088000BD2DE91E
:10154000F04104460D46104E2F0A3046B1884089BE
:10155000A1F5AA434FEA1428103B21D0A1F5C853A6
:10156000633B39D0FFF70AFE4046FFF710FEE0B2BA
:10157000FFF70DFEB089FFF701FE3846FFF707FEC3
:10158000E8B205E07E00006CA007002068000020A3
:10159000FFF7FDFDFE48318901804280BDE8F08102
:1015A000FFF7ECFD4046FFF7F2FD7089401C80B26A
:1015B000FFF7E4FDE0B2FFF7EAFDB089FFF7DEFDDB
:1015C0003846FFF7E4FDB089401C80B2FFF7D6FD36
:1015D000E8B2FFF7DCFDDDE7B17919B93188091B05
:1015E000491E8CB2FFF7CAFD4FEA14284046FFF7A8
:1015F000CEFDE0B2FFF7CBFD4046FFF7C8FDE0B2FD
:10160000FFF7C5FDB089FFF7B9FD3846FFF7BFFD0D
:10161000E8B2FFF7BCFD3846FFF7B9FDE8B2FFF7C7
:10162000B6FDB7E710B50246BE20FFF7A7FD0520BF
:10163000FFF7ADFD10461FF070FB9FEDD61B53EC7E
:10164000112B1FF0B9FB1FF03BFB80B2FFF79FFD92
:101650000120FFF79CFDFF20FFF799FD0020FFF719
:1016600096FDBDE81040002091E52DE9F04FCB4BF1
:10167000987119462C272B252A2689884FF4305833
:101680004FF428594FF4487441F6631A4FF0F00BA9
:1016900045F2105E4FF4A07C4FF4F07200280ED09B
:1016A000A3F800C0A3F802B071452BD1A3F80880BD
:1016B000A3F80A90280298811C805A802DE0A3F894
:1016C00000B0A3F802C0714509D1A3F80880A3F8BF
:1016D0000A904FF42C5098811A805C800AE05145A2
:1016E00005D11F815D819E811A805C8002E01F818F
:1016F0005E819D81A1F5A640103815D1A3F800C0E8
:101700005A8011E0514505D11F815E819D811C8069
:101710005A8002E01F815E819D81A1F5A6401038AC
:1017200002D11A80A3F802C0BDE8F04F002027E6DE
:101730002DE9F04F05460C46A818401E87B204EB71
:10174000030CACF1010C1FFA8CF8944E4FEA1429EB
:101750003046B1884089A1F5C85ABAF1630A2BD145
:1017600096F806A0BAF1010F26D03188891A491BD4
:101770008DB21FFA8CF7FFF701FD280AFFF707FD6E
:10178000E8B2FFF704FD2A44521EC2F30F20FFF710
:10179000FEFCD0B2FFF7FBFCB089FFF7EFFC484638
:1017A000FFF7F5FCE0B2FFF7F2FC380AFFF7EFFCB9
:1017B000F8B2BDE8F04FEAE423442A445B1E521E0F
:1017C000A1F5A04CC3F3072AC2F307224FEA152B59
:1017D000BCF5A26C1ED0FFF7D1FC5846FFF7D7FC32
:1017E000E8B2FFF7D4FC1046FFF7D1FCF8B2FFF7E0
:1017F000CEFCB089FFF7C2FC4846FFF7C8FCE0B258
:10180000FFF7C5FC5046FFF7C2FC08F0FF00BDE83B
:10181000F04FBCE4FFF7B2FC5846FFF7B8FC708904
:10182000401C80B2FFF7AAFCE8B2FFF7B0FC708959
:10183000801C80B2FFF7A2FC1046FFF7A8FC70895D
:10184000C01C80B2FFF79AFCF8B2FFF7A0FCB08989
:10185000FFF794FC4846FFF79AFCB089401C80B221
:10186000FFF78CFCE0B2FFF792FCB089801C80B2DD
:10187000FFF784FC5046FFF78AFCB089C01C80B299
:10188000FFF77CFC08F0FF00BDE8F04F7FE470B587
:1018900005460024414908884E88464300210846F1
:1018A000FFF7AAFCFFF792FC4FF0D84102E0A1F845
:1018B0008050641CB442FAD370BD2DE9F04FA1B042
:1018C0000024209401217A2005F0F3FF012108462D
:1018D00006F007F84FF400401E9001258DF87C506B
:1018E0008DF87E4002268DF87D608DF87F501EA910
:1018F0002B4805F08BFB4CF233701E908DF87C600A
:101900008DF87E4003278DF87D708DF87F50DFF8CD
:1019100094801EA9404605F079FB4FF680701E901A
:101920008DF87C608DF87E408DF87D708DF87F504D
:10193000DFF874901EA9484605F068FB28031E9046
:101940008DF87C608DF87E408DF87D708DF87F502D
:101950001EA9164805F05AFB28031E908DF87C60DE
:101960008DF87E408DF87D708DF87F501EA910484F
:1019700005F04CFB0C220021404605F0BFFB0C2279
:101980000121404605F0BAFB0C220421404611E03B
:101990007E00006C6666666666660440A0070020EE
:1019A00000040240000C02400010024000140240FB
:1019B0000018024005F0A2FB0C220521404605F06C
:1019C0009DFB0C220821404605F098FB0C220921C2
:1019D000404605F093FB0C220A21404605F08EFBA1
:1019E0000C220E21404605F089FB0C220F214046B7
:1019F00005F084FB0C220721484605F07FFB0C22F2
:101A00000821484605F07AFB0C220921484605F0DA
:101A100075FB0C220A21484605F070FB0C220B21B5
:101A2000484605F06BFB0C221146484605F066FB64
:101A30000C220D21484605F061FB0C220E21484680
:101A400005F05CFB0C220F21484605F057FB0C22E9
:101A50001146FE4805F052FB0C221146FC4805F0E9
:101A60004DFB0F20089009943C200A900B940C9495
:101A70000D940E9409200190029408200390049480
:101A800005940694079406200F901094119410204A
:101A900012901394159414941694179400021890AD
:101AA000199480001A901B9408A81C9001A81D90FE
:101AB0000FA805F061FB0121062005F0D7FB3220BD
:101AC00005F0D9F8D320FFF759FBFFF76AFBE1498E
:101AD0008880FFF766FBDF498880FFF762FBDD49FE
:101AE0004FF6FF7808EA00208880FFF75AFBD949B3
:101AF00089880843D7498880A0F5134145F21036FC
:101B000045F2105541F6631747F289744FF4704B54
:101B100041397CD00420FFF731FBFFF742FBDFF8AF
:101B20003493A9F80400FFF73CFBA9F80400FFF781
:101B300038FB08EA0020A9F80400FFF732FBB9F8E7
:101B400004100843A9F80400A0F50541523901D159
:101B5000A9F80440B9F80400A04270D0D420FFF7DF
:101B60000DFBFFF71EFBA9F80400FFF71AFBA9F80D
:101B70000400FFF716FB08EA0020A9F80400FFF7AD
:101B800010FBB9F804100843A9F80400B04256D07D
:101B900055215846FFF70DFBAA214FF20100FFF730
:101BA00008FB52214FF20200FFF703FB08214FF21E
:101BB0000300FFF7FEFA01214FF20400FFF7F9FAE4
:101BC0004FF44540FFF7DAFAFFF7EBFA08EA002096
:101BD000A9F804004CF20150FFF7D0FAFFF7E1FA40
:101BE000B9F804100843A9F80400052005F043F8EB
:101BF000B9F80400B0F5004F01D1A9F80450B9F8C4
:101C00000400A8421BD0A120FFF7B8FA00E016E0BC
:101C1000FFF7C7FAA9F80400FFF7C3FA08EA0020A3
:101C2000A9F80400FFF7BDFAB9F804100843A9F8B1
:101C30000400A0F5AE41613901D1A9F80470DFF8C4
:101C400014A249F24139BAF80410494507D0A1421B
:101C500005D0B14203D0A94201D0B9421DD17E487E
:101C6000026822F00F020260026822F470620260D1
:101C7000026842F003020260A0F58E70A14206D114
:101C8000D0F81C2142F44072C0F81C2105E0D0F8C5
:101C90001C2142F40072C0F81C2170A01DF04EF807
:101CA000BAF8040048457CD1CF20FFF767FA00203E
:101CB000FFF76DFAC120FFF76AFA3020FFF767FAE5
:101CC000ED20FFF75BFA6420FFF761FA0320FFF7CE
:101CD0005EFA1220FFF75BFA8120FFF758FAE8203E
:101CE000FFF74CFA8520FFF752FA1020FFF74FFA62
:101CF0007A20FFF74CFACB20FFF740FA3920FFF7A4
:101D000046FA2C20FFF743FA0020FFF740FA342070
:101D1000FFF73DFA0220FFF73AFAF720FFF72EFA15
:101D20002020FFF734FAEA20FFF728FA0020FFF717
:101D30002EFA0020FFF72BFAC020FFF71FFA1B2016
:101D4000FFF725FAC120FFF719FA0120FFF71FFA64
:101D5000C520FFF713FA3020FFF719FA3020FFF7FC
:101D600016FAC720FFF70AFAB720FFF710FA362055
:101D7000FFF704FA4820FFF70AFA3A20FFF7FEF9C6
:101D80005520FFF704FAB120FFF7F8F90020FFF71C
:101D9000FEF91A20FFF7FBF9B620FFF7EFF90A204A
:101DA00000E0AAE0FFF7F3F9A220FFF7F0F9F22034
:101DB000FFF7E4F90020FFF7EAF92620FFF7DEF944
:101DC0000120FFF7E4F9E020FFF7D8F90F20FFF733
:101DD000DEF92A20FFF7DBF92820FFF7D8F90820E1
:101DE000FFF7D5F90E20FFF7D2F90820FFF7CFF95A
:101DF0005420FFF7CCF9A920FFF7C9F94320FFF7DA
:101E0000C6F90A20FFF7C3F90F20FFF7C0F9002039
:101E1000FFF7BDF90020FFF7BAF90020FFF7B7F987
:101E20000020FFF7B4F9E120FFF7A8F90020FFF741
:101E3000AEF91520FFF7ABF91720FFF7A8F9072037
:101E4000FFF7A5F91120FFF7A2F90FE000140240F7
:101E500000180240A00700201C0100A0204C4344B1
:101E60002049443A25780D0A000000000620FFF7BB
:101E70008EF92B20FFF78BF95620FFF788F93C20CD
:101E8000FFF785F90520FFF782F91020FFF77FF9AA
:101E90000F20FFF77CF93F20FFF779F93F20FFF78C
:101EA00076F90F20FFF773F92B20FFF767F9002071
:101EB000FFF76DF90020FFF76AF90120FFF767F9D6
:101EC0003F20FFF764F92A20FFF758F90020FFF7B9
:101ED0005EF90020FFF75BF90020FFF758F9EF20CB
:101EE000FFF755F91120FFF749F9782004F0C3FEF8
:101EF0002920FFF743F902F08EB8A0427ED11120CD
:101F0000FFF73CF9782004F0B6FE3620FFF736F9EB
:101F10000020FFF73CF93A20FFF730F90520FFF7E2
:101F200036F9B220FFF72AF90C20FFF730F90C2020
:101F3000FFF72DF90020FFF72AF93320FFF727F9E3
:101F40003320FFF724F9B720FFF718F93520FFF702
:101F50001EF9BB20FFF712F93220FFF718F9C02055
:101F6000FFF70CF90C20FFF712F9C220FFF706F972
:101F70000120FFF70CF9C320FFF700F91020FFF74D
:101F800006F9C420FFF7FAF82020FFF700F9C62071
:101F9000FFF7F4F80F20FFF7FAF8D020FFF7EEF87C
:101FA000A420FFF7F4F8A120FFF7F1F8E020FFF7F5
:101FB000E5F8D020FFF7EBF80020FFF7E8F8022063
:101FC000FFF7E5F80720FFF7E2F80A20FFF7DFF850
:101FD0002820FFF7DCF83220FFF7D9F84420FFF77C
:101FE000D6F84220FFF7D3F80620FFF7D0F80E20EE
:101FF000FFF7CDF81220FFF7CAF800E054E01420F4
:10200000FFF7C5F81720FFF7C2F8E120FFF7B6F891
:10201000D020FFF7BCF80020FFF7B9F80220FFF747
:10202000B6F80720FFF7B3F80A20FFF7B0F828202A
:10203000FFF7ADF83120FFF7AAF85420FFF7A7F813
:102040004720FFF7A4F80E20FFF7A1F81C20FFF7A8
:102050009EF81720FFF79BF81B20FFF798F81E202B
:10206000FFF795F82A20FFF789F80020FFF78FF88F
:102070000020FFF78CF80020FFF789F8EF20FFF72A
:1020800086F82B20FFF77AF80020FFF780F8002071
:10209000FFF77DF80120FFF77AF83F20FFF777F888
:1020A0002920FFF76BF826E7B0427CD1ED20FFF73F
:1020B00065F80120FFF76BF8FE20FFF768F8EE20C7
:1020C000FFF75CF8DE20FFF762F82120FFF75FF8EA
:1020D000F120FFF753F80120FFF759F8DF20FFF751
:1020E0004DF81020FFF753F8C420FFF747F88F2072
:1020F000FFF74DF8C620FFF741F80020FFF747F83B
:10210000E220FFF744F8E220FFF741F8E220FFF772
:102110003EF8BF20FFF732F8AA20FFF738F8B020CA
:10212000FFF72CF80D20FFF732F80020FFF72FF80B
:102130000D20FFF72CF80020FFF729F81120FFF7FA
:1021400026F80020FFF723F81920FFF720F80020D9
:10215000FFF71DF82120FFF71AF80020FFF717F806
:102160002D20FFF714F80020FFF711F83D20FFF7AE
:102170000EF80020FFF70BF85D20FFF708F80020AD
:10218000FFF705F85D20FFF702F80020FEF7FFFFDC
:10219000B120FEF7F3FF8020FEF7F9FF0020FEF7E5
:1021A000F6FF8B2000E0FCE3FEF7F1FF0020FEF7D6
:1021B000EEFF9620FEF7EBFF0020FEF7E8FFB220CF
:1021C000FEF7DCFF0020FEF7E2FF0020FEF7DFFF56
:1021D0000220FEF7DCFF0020FEF7D9FF0320FEF708
:1021E000D6FF0020FEF7D3FFB320FEF7C7FF002085
:1021F000FEF7CDFF0020FEF7CAFF0020FEF7C7FF65
:102200000020FEF7C4FF0020FEF7C1FF0020FEF70C
:10221000BEFF0020FEF7BBFF0020FEF7B8FF002046
:10222000FEF7B5FF0020FEF7B2FF0020FEF7AFFF7C
:102230000020FEF7ACFF0020FEF7A9FF0020FEF70C
:10224000A6FF0020FEF7A3FF0020FEF7A0FF00205E
:10225000FEF79DFF0020FEF79AFF0020FEF797FF94
:102260000020FEF794FF0020FEF791FF0020FEF70C
:102270008EFF0020FEF78BFF0020FEF788FFB420C2
:10228000FEF77CFF8B20FEF782FF0020FEF77FFF2A
:102290009620FEF77CFF0020FEF779FFA120FEF7D5
:1022A00076FF0020FEF773FFB520FEF767FF0220E0
:1022B000FEF76DFF0020FEF76AFF0320FEF767FFC1
:1022C0000020FEF764FF0420FEF761FF0020FEF708
:1022D0005EFFB620FEF752FF0020FEF758FF0020F9
:1022E000FEF755FFB720FEF749FF0020FEF74FFF2E
:1022F0000020FEF74CFF3F20FEF749FF0020FEF7CD
:1023000046FF5E20FEF743FF0020FEF740FF6420FB
:10231000FEF73DFF0020FEF73AFF8C20FEF737FF67
:102320000020FEF734FFAC20FEF731FF0020FEF75F
:102330002EFFDC20FEF72BFF0020FEF728FF702089
:10234000FEF725FF0020FEF722FF9020FEF71FFF7B
:102350000020FEF71CFFEB20FEF719FF0020FEF720
:1023600016FFDC20FEF713FF0020FEF710FFB82059
:10237000FEF704FF0020FEF70AFF0020FEF707FF2C
:102380000020FEF704FF0020FEF701FF0020FEF70B
:10239000FEFE0020FEF7FBFE0020FEF7F8FE002008
:1023A000FEF7F5FEBA20FEF7E9FE2420FEF7EFFE69
:1023B0000020FEF7ECFE0020FEF7E9FE0020FEF70D
:1023C000E6FEC120FEF7DAFE2020FEF7E0FE002048
:1023D000FEF7DDFE5420FEF7DAFE0020FEF7D7FE02
:1023E000FF20FEF7D4FE0020FEF7D1FEC220FEF74C
:1023F000C5FE0A20FEF7CBFE0020FEF7C8FE042033
:10240000FEF7C5FE0020FEF7C2FEC320FEF7B6FEB3
:102410003C20FEF7BCFE0020FEF7B9FE3A20FEF796
:10242000B6FE0020FEF7B3FE3920FEF7B0FE002016
:10243000FEF7ADFE3720FEF7AAFE0020FEF7A7FE4E
:102440003C20FEF7A4FE0020FEF7A1FE3620FEF79A
:102450009EFE0020FEF79BFE3220FEF798FE002035
:10246000FEF795FE2F20FEF792FE0020FEF78FFE6E
:102470002C20FEF78CFE0020FEF789FE2920FEF7B7
:1024800086FE0020FEF783FE2620FEF780FE002059
:10249000FEF77DFE2420FEF77AFE0020FEF777FE91
:1024A0002420FEF774FE0020FEF771FE2320FEF7C5
:1024B0006EFE0020FEF76BFE3C20FEF768FE00205B
:1024C000FEF765FE3620FEF762FE0020FEF75FFE97
:1024D0003220FEF75CFE0020FEF759FE2F20FEF7AB
:1024E00056FE0020FEF753FE2C20FEF750FE002083
:1024F000FEF74DFE2920FEF74AFE0020FEF747FEBC
:102500002620FEF744FE0020FEF741FE2420FEF7C1
:102510003EFE0020FEF73BFE2420FEF738FE0020A2
:10252000FEF735FE2320FEF732FE0020FEF72FFED9
:10253000C420FEF723FE6220FEF729FE0020FEF7EE
:1025400026FE0520FEF723FE0020FEF720FE842055
:10255000FEF71DFE0020FEF71AFEF020FEF717FE24
:102560000020FEF714FE1820FEF711FE0020FEF7F3
:102570000EFEA420FEF70BFE0020FEF708FE18203A
:10258000FEF705FE0020FEF702FE5020FEF7FFFDDD
:102590000020FEF7FCFD0C20FEF7F9FD0020FEF701
:1025A000F6FD1720FEF7F3FD0020FEF7F0FD952065
:1025B000FEF7EDFD0020FEF7EAFDF320FEF7E7FD54
:1025C0000020FEF7E4FDE620FEF7E1FD0020FEF727
:1025D000DEFDC520FEF7D2FD3220FEF7D8FD00203B
:1025E000FEF7D5FD4420FEF7D2FD0020FEF7CFFD1B
:1025F0006520FEF7CCFD0020FEF7C9FD7620FEF732
:10260000C6FD0020FEF7C3FD8820FEF7C0FD0020B8
:10261000FEF7BDFDC620FEF7B1FD2020FEF7B7FD99
:102620000020FEF7B4FD1720FEF7B1FD0020FEF7F5
:10263000AEFD0120FEF7ABFD0020FEF7A8FDC72090
:10264000FEF79CFD0020FEF7A2FD0020FEF79FFD97
:102650000020FEF79CFD0020FEF799FDC820FEF744
:102660008DFD0020FEF793FD0020FEF790FD002079
:10267000FEF78DFD0020FEF78AFDC920FEF77EFDE6
:102680000020FEF784FD0020FEF781FD0020FEF70C
:102690007EFD0020FEF77BFD0020FEF778FD002088
:1026A000FEF775FD0020FEF772FD0020FEF76FFDBE
:1026B0000020FEF76CFD0020FEF769FD0020FEF70C
:1026C00066FD0020FEF763FD0020FEF760FD0020A0
:1026D000FEF75DFD0020FEF75AFD0020FEF757FDD6
:1026E000E020FEF74BFD1620FEF751FD0020FEF71F
:1026F0004EFD1C20FEF74BFD0020FEF748FD21207B
:10270000FEF745FD0020FEF742FD3620FEF73FFDB7
:102710000020FEF73CFD4620FEF739FD0020FEF7C5
:1027200036FD5220FEF733FD0020FEF730FD642019
:10273000FEF72DFD0020FEF72AFD7A20FEF727FD8B
:102740000020FEF724FD8B20FEF721FD0020FEF780
:102750001EFD9920FEF71BFD0020FEF718FDA820A6
:10276000FEF715FD0020FEF712FDB920FEF70FFD64
:102770000020FEF70CFDC420FEF709FD0020FEF747
:1027800006FDCA20FEF703FD0020FEF700FDD22063
:10279000FEF7FDFC0020FEF7FAFCD920FEF7F7FC5F
:1027A0000020FEF7F4FCE020FEF7F1FC0020FEF72D
:1027B000EEFCF320FEF7EBFC0020FEF7E8FCE12046
:1027C000FEF7DCFC1620FEF7E2FC0020FEF7DFFC43
:1027D0001C20FEF7DCFC0020FEF7D9FC2220FEF7CF
:1027E000D6FC0020FEF7D3FC3620FEF7D0FC0020FC
:1027F000FEF7CDFC4520FEF7CAFC0020FEF7C7FC23
:102800005220FEF7C4FC0020FEF7C1FC6420FEF756
:10281000BEFC0020FEF7BBFC7A20FEF7B8FC0020CF
:10282000FEF7B5FC8B20FEF7B2FC0020FEF7AFFCF4
:102830009920FEF7ACFC0020FEF7A9FCA820FEF7CB
:10284000A6FC0020FEF7A3FCB920FEF7A0FC0020A8
:10285000FEF79DFCC420FEF79AFC0020FEF797FCD3
:10286000CA20FEF794FC0020FEF791FCD220FEF770
:102870008EFC0020FEF78BFCD820FEF788FC0020A1
:10288000FEF785FCE020FEF782FC0020FEF77FFCCF
:10289000F320FEF77CFC0020FEF779FCE220FEF737
:1028A0006DFC0520FEF773FC0020FEF770FC0B208A
:1028B000FEF76DFC0020FEF76AFC1B20FEF767FCAC
:1028C0000020FEF764FC3420FEF761FC0020FEF7D8
:1028D0005EFC4420FEF75BFC0020FEF758FC4F2016
:1028E000FEF755FC0020FEF752FC6120FEF74FFC7E
:1028F0000020FEF74CFC7920FEF749FC0020FEF793
:1029000046FC8820FEF743FC0020FEF740FC9720A1
:10291000FEF73DFC0020FEF73AFCA620FEF737FC50
:102920000020FEF734FCB720FEF731FC0020FEF754
:102930002EFCC220FEF72BFC0020FEF728FCC7204F
:10294000FEF725FC0020FEF722FCD120FEF71FFC3D
:102950000020FEF71CFCD620FEF719FC0020FEF735
:1029600016FCDD20FEF713FC0020FEF710FCF32020
:10297000FEF70DFC0020FEF70AFCE320FEF7FEFB4D
:102980000520FEF704FC0020FEF701FC0A20FEF7FC
:10299000FEFB0020FEF7FBFB1C20FEF7F8FB0020EF
:1029A00000E0FFE2FEF7F3FB3320FEF7F0FB002030
:1029B000FEF7EDFB4420FEF7EAFB0020FEF7E7FB05
:1029C0005020FEF7E4FB0020FEF7E1FB6220FEF75B
:1029D000DEFB0020FEF7DBFB7820FEF7D8FB0020B3
:1029E000FEF7D5FB8820FEF7D2FB0020FEF7CFFBD9
:1029F0009720FEF7CCFB0020FEF7C9FBA620FEF7D0
:102A0000C6FB0020FEF7C3FBB720FEF7C0FB00208B
:102A1000FEF7BDFBC220FEF7BAFB0020FEF7B7FBB6
:102A2000C720FEF7B4FB0020FEF7B1FBD120FEF774
:102A3000AEFB0020FEF7ABFBD520FEF7A8FB002085
:102A4000FEF7A5FBDD20FEF7A2FB0020FEF79FFBB3
:102A5000F320FEF79CFB0020FEF799FBE420FEF735
:102A60008DFB0120FEF793FB0020FEF790FB012079
:102A7000FEF78DFB0020FEF78AFB0220FEF787FBA6
:102A80000020FEF784FB2A20FEF781FB0020FEF7E2
:102A90007EFB3C20FEF77BFB0020FEF778FB4B2003
:102AA000FEF775FB0020FEF772FB5D20FEF76FFB63
:102AB0000020FEF76CFB7420FEF769FB0020FEF798
:102AC00066FB8420FEF763FB0020FEF760FB93208B
:102AD000FEF75DFB0020FEF75AFBA220FEF757FB36
:102AE0000020FEF754FBB320FEF751FB0020FEF759
:102AF0004EFBBE20FEF74BFB0020FEF748FBC42038
:102B0000FEF745FB0020FEF742FBCD20FEF73FFB22
:102B10000020FEF73CFBD320FEF739FB0020FEF738
:102B200036FBDD20FEF733FB0020FEF730FBF32001
:102B3000FEF72DFB0020FEF72AFBE520FEF71EFB2B
:102B40000020FEF724FB0020FEF721FB0020FEF70B
:102B50001EFB0020FEF71BFB0220FEF718FB0020E7
:102B6000FEF715FB2920FEF712FB0020FEF70FFBF6
:102B70003C20FEF70CFB0020FEF709FB4B20FEF784
:102B800006FB0020FEF703FB5D20FEF700FB0020A4
:102B9000FEF7FDFA7420FEF7FAFA0020FEF7F7FAC6
:102BA0008420FEF7F4FA0020FEF7F1FA9320FEF7F6
:102BB000EEFA0020FEF7EBFAA220FEF7E8FA00207A
:102BC000FEF7E5FAB320FEF7E2FA0020FEF7DFFA9F
:102BD000BE20FEF7DCFA0020FEF7D9FAC420FEF78B
:102BE000D6FA0020FEF7D3FACD20FEF7D0FA002067
:102BF000FEF7CDFAD320FEF7CAFA0020FEF7C7FA97
:102C0000DC20FEF7C4FA0020FEF7C1FAF320FEF73D
:102C1000BEFA0020FEF7BBFAE620FEF7AFFA11205D
:102C2000FEF7B5FA0020FEF7B2FA3420FEF7AFFA4D
:102C30000020FEF7ACFA5620FEF7A9FA0020FEF7B6
:102C4000A6FA7620FEF7A3FA0020FEF7A0FA772076
:102C5000FEF79DFA0020FEF79AFA6620FEF797FA33
:102C60000020FEF794FA8820FEF791FA0020FEF784
:102C70008EFA9920FEF78BFA0020FEF788FABB2027
:102C8000FEF785FA0020FEF782FA9920FEF77FFA18
:102C90000020FEF77CFA6620FEF779FA0020FEF7A6
:102CA00076FA5520FEF773FA0020FEF770FA5520E9
:102CB000FEF76DFA0020FEF76AFA4520FEF767FA84
:102CC0000020FEF764FA4320FEF761FA0020FEF7C9
:102CD0005EFA4420FEF75BFA0020FEF758FAE72080
:102CE000FEF74CFA3220FEF752FA0020FEF74FFAB8
:102CF0005520FEF74CFA0020FEF749FA7620FEF741
:102D000046FA0020FEF743FA6620FEF740FA00205C
:102D1000FEF73DFA6720FEF73AFA0020FEF737FA91
:102D20006720FEF734FA0020FEF731FA8720FEF71D
:102D30002EFA0020FEF72BFA9920FEF728FA002041
:102D4000FEF725FABB20FEF722FA0020FEF71FFA55
:102D50009920FEF71CFA0020FEF719FA7720FEF7FB
:102D600016FA0020FEF713FA4420FEF710FA0020AE
:102D7000FEF70DFA5620FEF70AFA0020FEF707FAD2
:102D80002320FEF704FA0020FEF701FA3320FEF7B5
:102D9000FEF90020FEF7FBF94520FEF7F8F90020C8
:102DA000FEF7F5F9E820FEF7E9F90020FEF7EFF964
:102DB0000020FEF7ECF99920FEF7E9F90020FEF774
:102DC000E6F98720FEF7E3F90020FEF7E0F9882016
:102DD000FEF7DDF90020FEF7DAF97720FEF7D7F9E4
:102DE0000020FEF7D4F96620FEF7D1F90020FEF7A7
:102DF000CEF98820FEF7CBF90020FEF7C8F9AA200B
:102E0000FEF7C5F90020FEF7C2F9BB20FEF7BFF9B7
:102E10000020FEF7BCF99920FEF7B9F90020FEF773
:102E2000B6F96620FEF7B3F90020FEF7B0F9552099
:102E3000FEF7ADF90020FEF7AAF95520FEF7A7F935
:102E40000020FEF7A4F94420FEF7A1F90020FEF7C8
:102E50009EF94420FEF79BF90020FEF798F95520D3
:102E6000FEF795F90020FEF792F9E920FEF786F9C2
:102E7000AA20FEF78CF90020FEF789F90020FEF762
:102E800086F90020FEF783F90020FEF777F9AA20E3
:102E9000FEF77DF9CF20FEF771F90020FEF777F9F4
:102EA0000020FEF774F90020FEF771F90020FEF70C
:102EB0006EF90020FEF76BF90020FEF768F900209C
:102EC000FEF765F90020FEF762F90020FEF75FF9D2
:102ED0000020FEF75CF90020FEF759F90020FEF70C
:102EE00056F90020FEF753F90020FEF750F90020B4
:102EF000FEF74DF90020FEF74AF90020FEF747F9EA
:102F0000F020FEF73BF90020FEF741F95020FEF7D4
:102F10003EF90020FEF73BF90020FEF738F90020CB
:102F2000FEF735F9F320FEF729F90020FEF72FF917
:102F3000F920FEF723F90620FEF729F91020FEF705
:102F400026F92920FEF723F90020FEF720F93A2080
:102F5000FEF714F95520FEF71AF91120FEF70EF9C5
:102F6000642003F088FE2920FEF708F93520FEF7DB
:102F700005F90020FEF70BF95120FEF7FFF8FF20BE
:102F8000FEF705F95320FEF7F9F82C20FEF7FFF8BD
:102F90005520FEF7F3F88220FEF7F9F82C20FEF713
:102FA000EDF8FDE3A8427DD155215846FEF701F921
:102FB0004FF20103AA211846FEF7FBF84FF2020474
:102FC00052212046FEF7F5F8651C08212846FEF739
:102FD000F0F8A61C01213046FEF7EBF80D214FF466
:102FE0003040FEF7E6F80D214BF20100FEF7E1F864
:102FF0000D214BF20200FEF7DCF84FF43647342186
:103000003846FEF7D6F83421781CFEF7D2F8342182
:10301000B81CFEF7CEF84FF431490D214846FEF7B3
:10302000C8F84BF2011A0D215046FEF7C2F80D21E7
:103030004BF20210FEF7BDF834214FF43740FEF793
:10304000B8F834214BF20170FEF7B3F834214BF29B
:103050000270FEF7AEF800214FF43240FEF7A9F8F7
:1030600000214BF20120FEF7A4F800214BF20220D0
:10307000FEF79FF824214FF43840FEF79AF82421F8
:103080004BF60100FEF795F824214BF60200FEF7FF
:1030900090F801214FF43F40FEF78BF80F214FF4D9
:1030A000334000E0FEE3FEF784F80F214BF20130DD
:1030B000FEF77FF80F214BF20230FEF77AF8342149
:1030C0004FF43940FEF775F834214BF60110FEF746
:1030D00070F834214BF60210FEF76BF808214FF41C
:1030E0003540FEF766F808214BF20150FEF761F813
:1030F00008214BF20250FEF75CF803214FF44240E6
:10310000FEF757F824214FF43A40FEF752F82421F5
:103110004BF60120FEF74DF824214BF60220FEF776
:1031200048F800214FF43C40FEF743F878214BF675
:103130000140FEF73EF800214BF60240FEF739F859
:1031400000214FF43D40FEF734F878214BF6015052
:10315000FEF72FF800214BF60250FEF72AF8002167
:103160004FF43E40FEF725F864214BF60160FEF770
:1031700020F800214FF45140FEF71BF833214DF2A7
:103180000110FEF716F800214DF20210FEF711F8BB
:1031900034214DF20310FEF70CF800214DF204101B
:1031A000FEF707F83A214DF20510FEF702F800216C
:1031B0004DF20610FDF7FDFF4A214DF20710FDF715
:1031C000F8FF00214DF20810FDF7F3FF5C214DF2EE
:1031D0000910FDF7EEFF00214DF20A10FDF7E9FF9F
:1031E00081214DF20B10FDF7E4FF00214DF20C1090
:1031F000FDF7DFFFA6214DF20D10FDF7DAFF0021EC
:103200004DF20E10FDF7D5FFE5214DF20F10FDF741
:10321000D0FF01214DF21010FDF7CBFF13214DF22D
:103220001110FDF7C6FF01214DF21210FDF7C1FF8D
:1032300054214DF21310FDF7BCFF01214DF2141083
:10324000FDF7B7FF82214DF21510FDF7B2FF012106
:103250004DF21610FDF7ADFFCA214DF21710FDF724
:10326000A8FF02214DF21810FDF7A3FF00214DF237
:103270001910FDF79EFF02214DF21A10FDF799FF7C
:1032800001214DF21B10FDF794FF02214DF21C109D
:10329000FDF78FFF34214DF21D10FDF78AFF02214B
:1032A0004DF21E10FDF785FF67214DF21F10FDF74F
:1032B00080FF02214DF22010FDF77BFF84214DF2AB
:1032C0002110FDF776FF02214DF22210FDF771FF6C
:1032D000A4214DF22310FDF76CFF02214DF22410C2
:1032E000FDF767FFB7214DF22510FDF762FF0221C0
:1032F0004DF22610FDF75DFFCF214DF22710FDF7AF
:1033000058FF02214DF22810FDF753FFDE214DF248
:103310002910FDF74EFF02214DF22A10FDF749FF5B
:10332000F2214DF22B10FDF744FF02214DF22C103B
:10333000FDF73FFFFE214DF22D10FDF73AFF03216F
:103340004DF22E10FDF735FF10214DF22F10FDF735
:1033500030FF03214DF23010FDF72BFF33214DF2EA
:103360003110FDF726FF03214DF23210FDF721FF4A
:103370006D214DF23310FDF71CFF00214FF4524038
:10338000FDF717FF33214DF20120FDF712FF002159
:103390004DF20220FDF70DFF34214DF20320FDF721
:1033A00008FF00214DF20420FDF703FF3A214DF202
:1033B0000520FDF7FEFE00214DF20620FDF7F9FE87
:1033C0004A214DF20720FDF7F4FE00214DF20820BE
:1033D000FDF7EFFE5C214DF20920FDF7EAFE00212A
:1033E0004DF20A20FDF7E5FE81214DF20B20FDF79D
:1033F000E0FE00214DF20C20FDF7DBFEA6214DF290
:103400000D20FDF7D6FE00214DF20E20FDF7D1FE76
:10341000E5214DF20F20FDF7CCFE01214DF21020E9
:10342000FDF7C7FE13214DF21120FDF7C2FE012169
:103430004DF21220FDF7BDFE54214DF21320FDF791
:10344000B8FE01214DF21420FDF7B3FE82214DF2AA
:103450001520FDF7AEFE01214DF21620FDF7A9FE65
:10346000CA214DF21720FDF7A4FE02214DF21820CB
:10347000FDF79FFE00214DF21920FDF79AFE022173
:103480004DF21A20FDF795FE01214DF21B20FDF7AC
:1034900090FE02214DF21C20FDF78BFE34214DF2EF
:1034A0001D20FDF786FE02214DF21E20FDF781FE54
:1034B00067214DF21F20FDF77CFE02214DF22020F6
:1034C000FDF777FE84214DF22120FDF772FE0221E7
:1034D0004DF22220FDF76DFEA4214DF22320FDF7D1
:1034E00068FE02214DF22420FDF763FEB7214DF264
:1034F0002520FDF75EFE02214DF22620FDF759FE44
:10350000CF214DF22720FDF754FE02214DF2282055
:10351000FDF74FFEDE214DF22920FDF74AFE022184
:103520004DF22A20FDF745FEF2214DF22B20FDF74A
:1035300040FE02214DF22C20FDF73BFEFE214DF214
:103540002D20FDF736FE03214DF22E20FDF731FE32
:1035500010214DF22F20FDF72CFE03214DF23020DB
:10356000FDF727FE33214DF23120FDF722FE032126
:103570004DF23220FDF71DFE6D214DF23320FDF797
:1035800018FE00214FF45340FDF713FE33214DF296
:103590000130FDF70EFE00214DF20230FDF709FE6D
:1035A00034214DF20330FDF704FE00214DF20430CA
:1035B000FDF7FFFD3A214DF20530FDF7FAFD002140
:1035C0004DF20630FDF7F5FD4A214DF20730FDF7CB
:1035D000F0FD00214DF20830FDF7EBFD5C214DF2CE
:1035E0000930FDF7E6FD00214DF20A30FDF7E1FD5F
:1035F00081214DF20B30FDF7DCFD00214DF20C3046
:10360000FDF7D7FDA6214DF20D30FDF7D2FD0021CB
:103610004DF20E30FDF7CDFDE5214DF20F30FDF7F7
:10362000C8FD01214DF21030FDF7C3FD13214DF20D
:103630001130FDF7BEFD01214DF21230FDF7B9FD4D
:1036400054214DF21330FDF7B4FD01214DF2143039
:10365000FDF7AFFD82214DF21530FDF7AAFD0121E6
:103660004DF21630FDF7A5FDCA214DF21730FDF7DA
:10367000A0FD02214DF21830FDF79BFD00214DF217
:103680001930FDF796FD02214DF21A30FDF791FD3C
:1036900001214DF21B30FDF78CFD02214DF21C3053
:1036A000FDF787FD34214DF21D30FDF782FD02212B
:1036B0004DF21E30FDF77DFD67214DF21F30FDF705
:1036C00078FD02214DF22030FDF773FD84214DF28B
:1036D0002130FDF76EFD02214DF22230FDF769FD2C
:1036E000A4214DF22330FDF764FD02214DF2243078
:1036F000FDF75FFDB7214DF22530FDF75AFD0221A0
:103700004DF22630FDF755FDCF214DF22730FDF764
:1037100050FD02214DF22830FDF74BFDDE214DF228
:103720002930FDF746FD02214DF22A30FDF741FD1B
:10373000F2214DF22B30FDF73CFD02214DF22C30F1
:10374000FDF737FDFE214DF22D30FDF732FD03214F
:103750004DF22E30FDF72DFD10214DF22F30FDF7EB
:1037600028FD03214DF23030FDF723FD33214DF2CA
:103770003130FDF71EFD03214DF23230FDF719FD0A
:103780006D214DF23330FDF714FD00214FF454400C
:10379000FDF70FFD33214DF20140FDF70AFD00E07A
:1037A0007EE300214DF20240FDF703FD34214DF28E
:1037B0000340FDF7FEFC00214DF20440FDF7F9FC4B
:1037C0003A214DF20540FDF7F4FC00214DF2064090
:1037D000FDF7EFFC4A214DF20740FDF7EAFC00211E
:1037E0004DF20840FDF7E5FC5C214DF20940FDF784
:1037F000E0FC00214DF20A40FDF7DBFC81214DF297
:103800000B40FDF7D6FC00214DF20C40FDF7D1FC3A
:10381000A6214DF20D40FDF7CCFC00214DF20E40EB
:10382000FDF7C7FCE5214DF20F40FDF7C2FC012179
:103830004DF21040FDF7BDFC13214DF21140FDF794
:10384000B8FC01214DF21240FDF7B3FC54214DF2BA
:103850001340FDF7AEFC01214DF21440FDF7A9FC29
:1038600082214DF21540FDF7A4FC01214DF21640D6
:10387000FDF79FFCCA214DF21740FDF79AFC02218B
:103880004DF21840FDF795FC00214DF21940FDF76F
:1038900090FC02214DF21A40FDF78BFC01214DF204
:1038A0001B4000E0FDE2FDF784FC02214DF21C40CC
:1038B000FDF77FFC34214DF21D40FDF77AFC02211B
:1038C0004DF21E40FDF775FC67214DF21F40FDF7DC
:1038D00070FC02214DF22040FDF76BFC84214DF27B
:1038E0002140FDF766FC02214DF22240FDF761FC0C
:1038F000A4214DF22340FDF75CFC02214DF224404F
:10390000FDF757FCB7214DF22540FDF752FC02218F
:103910004DF22640FDF74DFCCF214DF22740FDF73B
:1039200048FC02214DF22840FDF743FCDE214DF218
:103930002940FDF73EFC02214DF22A40FDF739FCFB
:10394000F2214DF22B40FDF734FC02214DF22C40C8
:10395000FDF72FFCFE214DF22D40FDF72AFC03213F
:103960004DF22E40FDF725FC10214DF22F40FDF7C2
:1039700020FC03214DF23040FDF71BFC33214DF2BA
:103980003140FDF716FC03214DF23240FDF711FCEA
:103990006D214DF23340FDF70CFC00214FF45540F2
:1039A000FDF707FC33214DF20150FDF702FC002129
:1039B0004DF20250FDF7FDFB34214DF20350FDF7AF
:1039C000F8FB00214DF20450FDF7F3FB3A214DF2D4
:1039D0000550FDF7EEFB00214DF20650FDF7E9FB27
:1039E0004A214DF20750FDF7E4FB00214DF208504B
:1039F000FDF7DFFB5C214DF20950FDF7DAFB0021FA
:103A00004DF20A50FDF7D5FB81214DF20B50FDF729
:103A1000D0FB00214DF20C50FDF7CBFBA6214DF25F
:103A20000D50FDF7C6FB00214DF20E50FDF7C1FB16
:103A3000E5214DF20F50FDF7BCFB01214DF2105076
:103A4000FDF7B7FB13214DF21150FDF7B2FB012139
:103A50004DF21250FDF7ADFB54214DF21350FDF71E
:103A6000A8FB01214DF21450FDF7A3FB82214DF27A
:103A70001550FDF79EFB01214DF21650FDF799FB05
:103A8000CA214DF21750FDF794FB02214DF2185058
:103A9000FDF78FFB00214DF21950FDF78AFB022143
:103AA0004DF21A50FDF785FB01214DF21B50FDF739
:103AB00080FB02214DF21C50FDF77BFB34214DF2BF
:103AC0001D50FDF776FB02214DF21E50FDF771FBF4
:103AD00067214DF21F50FDF76CFB02214DF2205083
:103AE000FDF767FB84214DF22150FDF762FB0221B7
:103AF0004DF22250FDF75DFBA4214DF22350FDF75E
:103B000058FB02214DF22450FDF753FBB7214DF233
:103B10002550FDF74EFB02214DF22650FDF749FBE3
:103B2000CF214DF22750FDF744FB02214DF22850E2
:103B3000FDF73FFBDE214DF22950FDF73AFB022154
:103B40004DF22A50FDF735FBF2214DF22B50FDF7D7
:103B500030FB02214DF22C50FDF72BFBFE214DF2E4
:103B60002D50FDF726FB03214DF22E50FDF721FBD2
:103B700010214DF22F50FDF71CFB03214DF2305068
:103B8000FDF717FB33214DF23150FDF712FB0321F6
:103B90004DF23250FDF70DFB6D214DF23350FDF724
:103BA00008FB00214FF45640FDF703FB33214DF293
:103BB0000160FDF7FEFA00214DF20260FDF7F9FA0F
:103BC00034214DF20360FDF7F4FA00214DF2046058
:103BD000FDF7EFFA3A214DF20560FDF7EAFA002110
:103BE0004DF20660FDF7E5FA4A214DF20760FDF758
:103BF000E0FA00214DF20860FDF7DBFA5C214DF29E
:103C00000960FDF7D6FA00214DF20A60FDF7D1FAFE
:103C100081214DF20B60FDF7CCFA00214DF20C60D2
:103C2000FDF7C7FAA6214DF20D60FDF7C2FA00219B
:103C30004DF20E60FDF7BDFAE5214DF20F60FDF784
:103C4000B8FA01214DF21060FDF7B3FA13214DF2DD
:103C50001160FDF7AEFA01214DF21260FDF7A9FAED
:103C600054214DF21360FDF7A4FA01214DF21460C6
:103C7000FDF79FFA82214DF21560FDF79AFA0121B6
:103C80004DF21660FDF795FACA214DF21760FDF767
:103C900090FA02214DF21860FDF78BFA00214DF2E7
:103CA0001960FDF786FA02214DF21A60FDF781FADC
:103CB00001214DF21B60FDF77CFA02214DF21C60E0
:103CC000FDF777FA34214DF21D60FDF772FA0221FB
:103CD0004DF21E60FDF76DFA67214DF21F60FDF792
:103CE00068FA02214DF22060FDF763FA84214DF25B
:103CF0002160FDF75EFA02214DF22260FDF759FACC
:103D0000A4214DF22360FDF754FA02214DF2246004
:103D1000FDF74FFAB7214DF22560FDF74AFA02216F
:103D20004DF22660FDF745FACF214DF22760FDF7F1
:103D300040FA02214DF22860FDF73BFADE214DF2F8
:103D40002960FDF736FA02214DF22A60FDF731FABB
:103D5000F2214DF22B60FDF72CFA02214DF22C607E
:103D6000FDF727FAFE214DF22D60FDF722FA03211F
:103D70004DF22E60FDF71DFA10214DF22F60FDF778
:103D800018FA03214DF23060FDF713FA33214DF29A
:103D90003160FDF70EFA03214DF23260FDF709FAAA
:103DA0006D214DF23360FDF704FA55215846FDF7B9
:103DB00000FAAA211846FDF7FCF952212046FDF72A
:103DC000F8F908212846FDF7F4F900213046FDF7FF
:103DD000F0F9CC214846FDF7ECF900215046FDF7FB
:103DE000E8F905213846FDF7E4F970214FF4374032
:103DF000FDF7DFF970214BF20170FDF7DAF90121CF
:103E00004FF43840FDF7D5F903214BF60100FDF7DB
:103E1000D0F903214BF60200FDF7CBF903214BF655
:103E20000300FDF7C6F902214FF43C40FDF7C1F94C
:103E300000214BF60140FDF7BCF900214BF6024092
:103E4000FDF7B7F9D0214FF44940FDF7B2F902214F
:103E50004CF60110FDF7ADF950214CF60210FDF7BC
:103E6000A8F950214CF60310FDF7A3F950214CF6A8
:103E70000410FDF79EF900214FF45450FDF799F915
:103E800055214FF46850FDF794F94FF48850FDF731
:103E900075F9782002F0D6FE4FF42450FDF76EF944
:103EA000B9E0B842FCD1E220FDF768F91D20FDF72A
:103EB0006EF90220FDF76BF90420FDF768F9642024
:103EC00002F0C0FEE020FDF759F90120FDF75FF98F
:103ED0000A2002F0D0FEE020FDF750F90320FDF7A4
:103EE00056F90C2002F0C7FE0120FDF747F90A2021
:103EF00002F0C1FEE620FDF741F92F20FDF747F95A
:103F0000FF20FDF744F9FF20FDF741F9B020FDF750
:103F100035F92020FDF73BF90020FDF738F90320A3
:103F2000FDF735F940F21F30FDF731F90120FDF7BB
:103F30002EF940F2DF10FDF72AF90020FDF727F9EE
:103F4000B420FDF71BF90420FDF721F940F21F40D2
:103F5000FDF71DF90020FDF71AF92E20FDF717F9DE
:103F60000020FDF714F90020FDF711F90020FDF7FE
:103F70000EF90020FDF70BF9B620FDF7FFF802203F
:103F8000FDF705F94FF40370FDF701F90020FDF787
:103F9000FEF81720FDF7FBF81520FDF7F8F80020D4
:103FA000FDF7F5F80020FDF7F2F8F020FDF7E6F850
:103FB0000320FDF7ECF82920FDF7E0F8D020FDF70D
:103FC000DDF80020FDF7E3F8BE20FDF7D7F8052067
:103FD000FDF7DDF8FE20FDF7DAF80120FDF7D7F850
:103FE0000020FDF7D4F80020FDF7D1F80020FDF700
:103FF000CEF8B820FDF7C2F80320FDF7C8F801207D
:10400000FDF7C5F8BA20FDF7B9F80120FDF7BFF8B4
:104010006420FDF707FB0020FDF727FBFB4901208B
:1040200008604046FDF733FC21B0BDE8F08F2DE974
:10403000F0438146079F0C469846A2EB0900401CBE
:1040400086B24FF0D8450FE021464846FDF7D4F838
:10405000FDF7BCF8002203E0A5F88070521C92B274
:10406000B242F9D3641CA4B24445EDD9BDE8F08353
:104070002DE9F0478246DDF820800E46A2EB0A00CB
:10408000401C85B2981B401C87B200244FF0D849D1
:1040900014E0301981B25046FDF7AEF8FDF796F8FE
:1040A000002207E004FB052038F81000A9F8800082
:1040B000521C92B2AA42F5D3641CA4B2BC42E8D30B
:1040C000BDE8F0872DE9FE4F00250026171AA3EB67
:1040D000010881468A46681E002F03DD4FF001016A
:1040E000019107E003D14FF00001019102E001903E
:1040F000C7F10007B8F1000F03DD4FF00100009099
:1041000007E003D14FF00000009002E00090C8F1FA
:104110000008474501DD3C4600E044464FF0000BF7
:10412000601C029015E01FFA8AF11FFA89F0FDF772
:10413000FBF93D444644A54202DD2D1B0198814414
:10414000A64202DD361B009882440BF1010B1FFAD8
:104150008BFB02988345E6DDBDE8FE8FF0B5054692
:104160000E4614461F463346224631462846FFF780
:10417000A9FF3B462A4631462846FFF7A3FF3B46A8
:10418000224639462846FFF79DFF3B4622463146E8
:104190002046BDE8F04095E72DE9FC4F07468846EC
:1041A000002415460320A0EB42064BE0A8EB0500D7
:1041B00081B207EB040A01901FFA8AF0FDF7B4F907
:1041C000A8EB040081B207EB050900901FFA89F003
:1041D000FDF7AAF908EB040B1FFA8BF11FFA89F01F
:1041E000FDF7A2F908EB05091FFA89F11FFA8AF019
:1041F000FDF79AF91FFA89F1A7EB04091FFA89F074
:10420000FDF792F9A7EB050A1FFA8BF11FFA8AF066
:10421000FDF78AF9019881B21FFA89F0FDF784F958
:10422000009881B21FFA8AF0FDF77EF9641C002E17
:1042300003DA06EB8406B61D04E0601B06EB80067D
:104240000A366D1EAC42B1DDBDE8FC8F2DE9F84F9A
:1042500082460C461F46A346780701D0012000E0A5
:10426000002000EBD70079084843C0B20090203A04
:1042700002F0FF09002649E00C2F14D0102F19D0AE
:10428000182F46D1624909EBC90001EB8000855D1A
:104290004FF00008280612D55E4821460288504695
:1042A000FDF74DF913E05C4909EB490001EB800093
:1042B000855DEDE7594800EB0910855DE8E70A9850
:1042C00028B95448214642885046FDF738F9680617
:1042D000050E641CA4B252484088A04219D9A4EB30
:1042E0000B00B84209D15C460AF1010A1FFA8AFAAA
:1042F0004B48008850450CD906E008F1010808F049
:10430000FF08B8F1080FC5D3761CF6B200988642B4
:10431000B2D3BDE8F88F0346012000E05843491EA0
:10432000C9B2FBD270472DE9FF4F81B08046DDF85E
:1043300038B092461D4600260024A1464FEA5B078E
:104340001FE0281B401EC1B20A20FFF7E4FFBAFBA2
:10435000F0F00A21B0FBF1F201FB120026B9691E50
:104360008C4201DA88B101263030C2B207FB0480EA
:1043700080B25B46CDF800900299FFF767FF641C9E
:10438000E4B2AC42DDD305B04FE607FB048080B257
:104390005B462022CDF800900299FFF757FFEEE729
:1043A0002DE9FF4F81B08046DDF83CA093461F46C3
:1043B0004FF0000900240E980AF00105460821E09C
:1043C000381B401EC1B20A20FFF7A5FFBBFBF0F06F
:1043D0000A21B0FBF1F201FB1200B9F1000F05D187
:1043E000791E8C4202DAE8B14FF001093030C2B2D6
:1043F00006FB048080B200950E9B0299FFF726FF12
:10440000641CE4B2BC42DBD3BDE70000BC82404286
:10441000FC1E020868000020981402080C1902080B
:10442000A00700205FEA0A6009D506FB048080B27D
:10443000009530220E9B0299FFF708FFE0E706FB8C
:10444000048080B2009520220E9B0299FFF7FEFEA9
:10445000D6E72DE9F84F0446DDE90A760D4604F06B
:10446000FF0810191FFA80F958191FFA80FA4FF047
:10447000000B11E04C4502D34446E81985B255457E
:104480000FD23B4629462046CDF800B0FFF7DEFEAE
:1044900004EB570084B2761C3278A2F120005E282B
:1044A000E8D936E77CB50121112003F002FA1C207F
:1044B000009000208DF8040003208DF805000124F1
:1044C0008DF807406946454802F0A0FD009402209F
:1044D0008DF80700424D6946284602F097FD4FF4DB
:1044E000C05100918DF807406946284602F08EFDC4
:1044F0007CBD10B500203B4CD4F8101200290AD125
:10450000142002F0B8FBD4F810020028FBD01420CD
:1045100002F0B1FB0120D4F80C1251B9142002F0C2
:10452000AAFBD4F80C020028FBD0142002F0A3FB55
:104530000220D4F8081251B9142002F09CFBD4F8E0
:1045400008020028FBD0142002F095FB0320264C23
:10455000D4F8001201290AD1142002F08CFBD4F8FF
:1045600000020128FBD0142002F085FB042010BDBE
:1045700010B51D49002803D0012809D0002010BD26
:10458000D1F82C0238B90A2002F075FB012010BDC9
:10459000D1F8300208B1002010BD0A2002F06BFBF8
:1045A000012010BD10B51049002803D001280AD001
:1045B000002010BDD1F82C02012808D10A2002F0F9
:1045C0005AFB012010BDD1F83002012801D0002093
:1045D00010BD0A2002F04FFB012010BD0010024068
:1045E0000000024000004242000040421CB5012190
:1045F000022003F05EF94FF44070009001248DF822
:10460000044000208DF8060003208DF805008DF889
:1046100007406946734802F0F9FC7348046044603F
:104620001CBD70B56F48016821F44021016001682C
:1046300041F4802101606C4C012060602060042006
:1046400002F000FB00256560042002F0FBFA256003
:1046500070BD10B56348016821F440210160016814
:1046600041F480210160604C0020206060600420E3
:1046700002F0E8FA012020606060BDE810400420EC
:1046800002F0E0BA70B500245648016821F44021D8
:10469000016001680160554D0126C5F8A462012042
:1046A00002F0D0FAC5F8A062012002F0CBFA07E0D0
:1046B000641CE4B2FA2C03D9FFF7CBFF012070BDD4
:1046C000D5F824020028F3D1C5F8A00270BD70B55A
:1046D000454C002525604348016821F440210160D4
:1046E000016841F4802101606560022002F0AAFAAD
:1046F00001202060022002F0A5FA256070BD70B58F
:10470000394C002525603748016821F440210160BB
:10471000016841F48021016001266660022002F0F8
:1047200091FA2660022002F08DFA256070BD2DE915
:10473000F04105462B48016821F4402101600168E1
:1047400041F480210160294E4FF00008C6F8A08294
:1047500000240127E809C6F8A4026806050E022015
:1047600002F070FAC6F8A072022002F06BFAC6F8E6
:10477000A082022002F066FA641CE4B2082CE9D39D
:10478000BDE8F0812DE9F047814600241548016815
:1047900021F440210160016801600025134E0027CB
:1047A0004FF00108C6F8A072022002F04BFAC6F8DA
:1047B000A0826006040ED6F8240208B1641CE4B29C
:1047C000012002F03FFA6D1CEDB2082DEAD3B9F1D9
:1047D000000F04D0FFF77BFF2046BDE8F087FFF70E
:1047E0008EFFF9E700040240A08240420080404270
:1047F000FFF7FCBE10B50446FFF713FF200AA02107
:1048000001EB4000C0B2FFF792FFFFF73BFFE0B2C1
:10481000FFF78DFFFFF736FFFFF703FFA120FFF73C
:1048200086FFFFF72FFF0020FFF7ACFF0446FFF7DE
:1048300010FF204610BD70B504460D46FFF7F1FE8F
:10484000200AA02101EB4000C0B2FFF770FFFFF784
:1048500019FFE0B2FFF76BFFFFF714FF2846FFF7E1
:1048600066FFFFF70FFFFFF7F4FEBDE870400A2078
:1048700002F001BA2DE9F04106460D461746002424
:1048800009E0E00025FA00F0C1B2301980B2FFF76C
:10489000D2FF641CE4B2BC42F3D3BDE8F0812DE941
:1048A000F04102460E4600200024971908E0050258
:1048B000381B401E80B2FFF79DFF2844641CE4B201
:1048C000B442F4D3E9E710B5FF20FFF793FF552872
:1048D0000AD05521FF20FFF7AEFFFF20FFF78AFF28
:1048E000552803D0012010BD002010BD002010BDB0
:1048F00070B504460E46154608E02046641CA4B276
:10490000FFF778FF06F8010B6D1EADB2002DF4D154
:1049100070BD70B506460D46144606E0297830464F
:10492000FFF789FF761CB6B26D1C641EA4B2F5D2E7
:1049300070BD0000022002F085B91CB501210220E3
:1049400002F0B7FF0121202002F0B3FF0124009400
:104950008DF8044000208DF806008DF807400320F4
:104960008DF805006946784802F050FBE00200909F
:104970006946764802F04AFB754804607548C0F8FD
:1049800080421CBD70B57148016821F4400101608E
:10499000016841F4800101606D4D012028606E4E78
:1049A00030601E2002F04EF900242C60FFF7C2FF99
:1049B000346070BD70B56548016821F44001016044
:1049C000016841F4800101606348012505601E20F3
:1049D00002F038F95E4C00202060FFF7ABFF256045
:1049E00070BD70B500245948016821F44001016090
:1049F00001680160594D0120C5F8AC02554EC6F85A
:104A00008002FFF797FF09E0641CE4B2FA2C03D997
:104A1000FFF7D0FF012070BDFFF78CFFD5F82C0207
:104A20000028F1D1C6F8800270BD70B54A4C00254F
:104A300025604648016821F440010160016841F4A5
:104A400080010160FFF776FF41480560FFF772FFC4
:104A500001202060FFF76EFF256070BD70B53E4CF1
:104A6000002525603948016821F440010160016892
:104A700041F480010160FFF75DFF354801260660C3
:104A8000FFF758FF2660FFF755FF256070BD2DE941
:104A9000F04705462D48016821F440010160016896
:104AA00041F4800101602B4E4FF00008C6F880826F
:104AB000FFF740FF0024DFF8A4900127E809C9F8B8
:104AC000AC026806050EC6F88072FFF733FFC6F821
:104AD0008082FFF72FFF641CE4B2082CEED3BDE800
:104AE000F0872DE9F047824600241848016821F438
:104AF00040010160016801601E2002F0A3F800255A
:104B0000144EDFF8589000274FF00108C6F8807265
:104B1000FFF710FFC6F880826006040ED9F82C0259
:104B200008B1641CE4B2FFF705FF6D1CEDB2082D5F
:104B3000ECD3BAF1000F03D0FFF777FF2046CEE7A2
:104B4000FFF78CFFFAE70000000402400014024067
:104B5000AC82424200804042808240420080424219
:104B60002DE9F04104460E4615460027FFF70AFFDF
:104B70002820FFF78CFFFFF734FF200AFFF787FF9D
:104B8000FFF72FFFE0B2FFF782FFFFF72AFF0024B5
:104B900009E0305DFFF77BFFFFF723FF0746380092
:104BA00003D1641CE4B2AC42F3D3FFF703FF3846F1
:104BB000BDE8F08108B5002100228DF800208DF8B5
:104BC0000100BE489DF80020435C1A448DF8002087
:104BD000491CC9B2B829F5D39DF80000C043401C58
:104BE0008DF80000B822B54948F24700FFF7B8FF3A
:104BF0000222694648F2FF00FFF7B2FF002008BD1D
:104C00002DE9F04104460D461646FFF7BBFE28206D
:104C1000FFF73DFFFFF7E5FE200AFFF738FFFFF73C
:104C2000E0FEE0B2FFF733FFFFF7DBFEFFF7AAFE7F
:104C30002920FFF72CFFFFF7D4FE0024771E09E0A0
:104C4000BC4201D0012000E00020FFF74AFF2855B8
:104C5000641CE4B2B442F3D3BDE8F041FFF7AABE4E
:104C60002DE9FF470121022002F023FE012104204B
:104C700002F01FFE0226009600248DF80440012554
:104C80008DF8075003278DF80570DFF834926946D8
:104C9000484602F0BBF9680300908DF804508DF887
:104CA00006406946874802F0B1F9FFF746FEDFF893
:104CB0001882C8F8B4420A2001F0DDFFC8F8B452E7
:104CC0000A2001F0D8FF00968DF804508DF80740B7
:104CD0008DF805706946484602F098F9642001F0A5
:104CE000CAFF042202A948F24010FFF789FF8DF89D
:104CF0000C4002A975A01AF021F877A102A81AF0B9
:104D0000DBFA18B1002004B0BDE8F0878DF8086028
:104D100048F24005012202A92846FFF721FF01229F
:104D200002A9E81DFFF76CFF9DF80810602905D265
:104D30006BA01AF003F80120FFF73CFF0A2001F0F6
:104D40009AFF8DF80840012202A92846FFF708FFC4
:104D50000020D8E72DE9F14783B00024A246654D35
:104D60002878401CC0B228704FF00A09B0FBF9F156
:104D700009FB1101604E002901D00A2875D248F2C2
:104D80004E18012203A94046FFF73AFF002701977A
:104D9000012201A94046FFF7E3FE9DF80C00010740
:104DA0006ED000F00F0106296AD2FF2088400190E2
:104DB00096F82080C04340F0C00086F82000B089FB
:104DC000B082F08AF0834FF0010A96F820000AFAC8
:104DD00004F108422ED039480422B83002A930F834
:104DE0001400FFF70DFF96F83000C00712D09DF8B1
:104DF00008009DF8091000EB012106EB4400C18278
:104E00009DF80A109DF80B2001EB0221C1F54871B5
:104E100081810FE09DF808009DF8091000EB012149
:104E200006EB440081819DF80A109DF80B2001EBF0
:104E30000221C182641CE4B2052CC6D34FF0010AE2
:104E40002E49B28930460B889A4203D8C28A4988D3
:104E50008A4214D99DF80C1001F00F01012905D9DF
:104E6000C1898181018BC1822F7009E0818A818192
:104E7000C18BC1828021039180F8208000E02F70D7
:104E80009DF80C0000F08F00802810D196F82000CB
:104E9000010603D520F0800086F820004FF6FF7051
:104EA00026F80C0F7081307D00F0E0003075287816
:104EB000F02801D985F80090504624E7582C0208C4
:104EC00000040240000802400000414243545020C8
:104ED00049443A25730D0A00393134370000000087
:104EE00044656661756C74205665723A25640D0AD6
:104EF000000000006C00002074000020A0070020CB
:104F00002DE9F04104460E4615460027FFF73AFD0D
:104F1000B220FFF7BCFDFFF764FD200AFFF7B7FDE5
:104F2000FFF75FFDE0B2FFF7B2FDFFF75AFD002487
:104F300009E0305DFFF7ABFDFFF753FD0746380092
:104F400003D1641CE4B2AC42F3D3FFF733FD38461F
:104F5000BDE8F0812DE9F04104460D461646FFF705
:104F600011FDB220FFF793FDFFF73BFD200AFFF78D
:104F70008EFDFFF736FDE0B2FFF789FDFFF731FD4B
:104F8000FFF700FDB320FFF782FDFFF72AFD0024A5
:104F9000771E09E0BC4201D0012000E00020FFF7AD
:104FA000A0FD2855641CE4B2B442F3D3BDE8F0413F
:104FB000FFF700BD08B500210091002801D0802036
:104FC0000090012269464FF45060FFF799FF08BD39
:104FD000FEB5002402940121022002F06AFC0121A6
:104FE000042002F066FC022000908DF804400125A8
:104FF0008DF8075003208DF8050069466F4802F0D0
:1050000005F8680300908DF804508DF80640694655
:105010006B4801F0FBFFFFF790FC6A4E34606420A0
:1050200001F029FE3560642001F025FE0120FFF724
:10503000C1FF012202A94FF45060FFF78BFF9DF8DA
:10504000081061A019F07AFE9DF80800802801D0B0
:105050000120FEBD0020FEBD2DE9F1432DED048BA6
:1050600082B0002400255B4F3878401CC1B23970F3
:105070004FF00A08B1FBF8F008FB1010564E00285C
:1050800001D00A2979D2012206A90020FFF762FF88
:105090009DF81800C10670D000F01F0040F0C0005D
:1050A00086F820004FF001099FED4C8B9FED4D9B42
:1050B00096F8200009FA04F1084251D04B48042226
:1050C00001A930F81400FFF745FF96F83000C0073B
:1050D00026D09DF807009DF8061000EB01201BF07C
:1050E0001CFE53EC182B1BF067FE1BF0E9FD06EBD2
:1050F0004405E8829DF805009DF8041000EB0120AE
:105100001BF00BFE53EC192B1BF056FE9FED381BCA
:1051100053EC112B1BF084FF1BF0D2FDA8811FE084
:105120009DF807009DF8061000EB01201BF0F5FD2F
:1051300053EC182B1BF040FE1BF0C2FD06EB4405A0
:10514000A8819DF805009DF8041000EB01201BF0DC
:10515000E4FD53EC192B1BF02FFE1BF0B1FDE88290
:10516000641CE4B2052CA3D30125B289304600218A
:1051700012B9C08A00B9069139709DF81800C006AE
:1051800010D196F82010080604D521F0800086F88A
:10519000200007E04FF6FF70B081F08201F0E000E0
:1051A00086F820003878F02801D987F8008002B00E
:1051B0002846BDEC048BBDE8F883000000040240E3
:1051C00000080240B40241424354502049443A2569
:1051D000780D0A006D000020740000207B14AE479B
:1051E000E17AD43FD881734694F6D23F1A2D020853
:1051F00000000000000089402DE9F04104460E4601
:1052000015460027FFF7BEFB7020FFF740FCFFF7B5
:10521000E8FBE0B2FFF73BFCFFF7E3FB002409E00B
:10522000305DFFF734FCFFF7DCFB0746380003D1A5
:10523000641CE4B2AC42F3D3FFF7BCFB3846BDE8D4
:10524000F0812DE9F04104460D461646FFF79AFB22
:105250007020FFF71CFCFFF7C4FBE0B2FFF717FC60
:10526000FFF7BFFBFFF78EFB7120FFF710FCFFF786
:10527000B8FB0024771E09E0BC4201D0012000E009
:105280000020FFF72EFC2855641CE4B2B442F3D38F
:10529000BDE8F041FFF78EBBFEB50121022002F010
:1052A00008FB0121042002F004FB022000900024EE
:1052B0008DF8044001258DF8075003208DF8050076
:1052C0006946744801F0A2FE680300908DF804500E
:1052D0008DF806406946704801F098FEFFF72DFBF7
:1052E0006E4E3460142001F0C6FC3560322001F0AF
:1052F000C2FC8DF80840012202A90020FFF77CFFC4
:10530000012202A9A420FFF777FF16208DF80800DC
:10531000012202A98020FFF76FFF0C208DF8080002
:10532000012202A98820FFF767FF022202A9A1201B
:10533000FFF787FF9DF80800302803D19DF809008A
:10534000032801D00120FEBD43F2030154A019F04F
:10535000F5FC0020FEBD2DE9F14382B00024A146FA
:10536000524F3878401CC1B239704FF00A08B1FB77
:10537000F8F008FB10104E4E002801D00A296CD21C
:10538000012202A90220FFF75CFF042001F073FC58
:105390009DF80800010760D000F00F0006285CD2DD
:1053A000FF218140C84340F0C00086F820004FF044
:1053B0000109002596F8200009FA04F108423FD0BF
:1053C0003C48042201A930F81400FFF73AFF96F890
:1053D0003000C00714D09DF804109DF8050001F0BE
:1053E0000F0100EB012106EB4400C1829DF806206D
:1053F0009DF8071002F00F0201EB0221818115E0F8
:105400009DF804109DF8050001F00F0100EB01204C
:10541000C0F5F07106EB440081819DF806209DF8EF
:10542000071002F00F0201EB0221C1829DF8040077
:105430000821B1EB101F03D006EB4400C582858123
:10544000641CE4B2052CB5D34FF00109B189304694
:1054500011B9C08A00B902953D709DF80800C006D8
:1054600010D196F82000010604D520F0800086F8BF
:10547000200007E04FF6FF71B181F18200F0E000FB
:1054800086F820003878F02801D987F8008048464F
:10549000BDE8FE830004024000080240B40241421D
:1054A0004354502049443A25780D0A006E000020EC
:1054B00074000020242D02082DE9F0470546002441
:1054C000DFF8FC83FF4E00274FF00109280602D5C4
:1054D000C8F8AC9201E0C8F8AC726806050EC6F8D0
:1054E0008072012001F0AEFBC6F88092641CE4B229
:1054F000082CEBD3BDE8F0872DE9F0470025002408
:10550000F04EA046C6F88082ED49C1F8AC82DFF8C3
:10551000B893C9F8B482FFF7CFFF062001F092FBE1
:10552000C6F88082012001F08DFB0127C6F8807249
:10553000012001F087FBC6F880824FF6FF7A0AEA65
:105540004404C6F88082012001F07CFBC6F880721A
:10555000D6F8080208B1641CA4B26D1CEDB2102D7F
:10556000EDD32009C9F8B472C4E7FEB5064600249D
:105570006D463046FFF7C0FF25F81400641CA4B246
:10558000052CF6D30021481C044680B20BE035F808
:10559000113035F81020934203D925F8112025F851
:1055A0001030401C80B20528F1D3A1B20429EAD3FF
:1055B0000021012035F81020114489B2401C80B22E
:1055C0000428F7D30320B1FBF0F0FEBD2DE9F04134
:1055D00004460F46BD4D2878FFF7C7FF064668789A
:1055E000FFF7C3FF268038800120BDE8F0812DE958
:1055F000FF4106460F4602A903A8FFF7E7FF80B365
:10560000694601A8FFF7E2FF60B3BDF80420BDF8CA
:105610000C309A4203D802F13200834205D3934200
:1056200025D803F13200824221D2BDF80050BDF8E6
:105630000840A54203D805F13200844204D3AC42AD
:1056400015D83234A54212D2981840083080BDF8DF
:105650000800BDF80010084440083880012004B05C
:10566000C3E700E001E00020F9E70020F7E70020B1
:10567000F5E72DE9F04104460D469548028004F116
:105680000D0082B2193880B22B462946FEF71AFD6A
:1056900005F10D0083B2193881B222462046FEF78B
:1056A00011FD681C074681B2601C064680B2FBF7FC
:1056B0003BFFB9B2601E074680B2FBF735FF681E9C
:1056C000804681B2B0B2FBF72FFF1FFA88F1B8B263
:1056D000FBF72AFF29462046BDE8F0410622FEF7E7
:1056E0005BBD70B506460C467948028021463046BF
:1056F000FBF71AFF751CA8B22146FBF715FF641CC7
:10570000A1B23046FBF710FFA1B2A8B2BDE87040CD
:10571000FBF70ABF10B56F4909686C4C241D0029BE
:1057200008D094F82000010647D520F0800084F8C6
:10573000200049E00200654800F1040000F1160174
:1057400000F10C0002D0FFF752FF2AE0FFF74FFFF5
:1057500038B3B4F92C0094ED091A00EE100AA089B0
:1057600000EE900AB8EEC00AF8EE600A01EE200AD8
:10577000BCEEC00A10EE100AA081B4F92E0094ED20
:105780000A1A00EE100AE08A00EE900AB8EEC00A8B
:10579000F8EE600A01EE200ABCEEC00A10EE100A14
:1057A000E08294F8200000060ED4C02084F8200087
:1057B000A089A082E08AE08306E00020A082E08346
:1057C0004FF6FF70A081E08294F8200000F0800086
:1057D00010BD10B52DED028B3C4C9FED3F8A241D72
:1057E00094ED090A20EE080ABDEEC00A10EE101A68
:1057F00004222820FFF73EF894ED0A0A20EE080A5A
:10580000BDEEC00A10EE101A04222C20FFF732F869
:10581000B4F92C1002223020FFF72CF8B4F92E1026
:1058200002223220FFF726F894F830103420FFF7D8
:1058300002F8BDEC028B0A21BDE810403520FEF7CE
:10584000FABF10B52DED028B3520FEF7D3FF0A28E5
:1058500003D00020BDEC028B10BD04212820FFF7EF
:105860001EF800EE100A9FED1C8A184CB8EEC00A14
:10587000241DC0EE080AC4ED090A04212C20FFF7FC
:105880000EF800EE100AB8EEC00AC0EE080AC4ED29
:105890000A0A02213020FFF702F8A08502213220F7
:1058A000FEF7FDFFE0853420FEF7A4FF84F830000A
:1058B0009023211FD02288B10B704A7010E00000A5
:1058C00000804242008040420000414270000020BF
:1058D000680000200482404220BCBE4C0A704B701D
:1058E0000120B7E72DE9FF4F83B01746DDE912AB82
:1058F000DDE910891E46FF494FF478400880FEA07C
:105900001024CDE90040FD4DA02128206B882A8875
:10591000FEF79FFDFAA0CDE900406B882A88A02100
:105920007820FEF796FDF7A0CDE900406B882A8825
:10593000B4212820FEF78DFDF3A0CDE900406B884F
:105940002A88B4217820FEF784FDF0A0CDE900403C
:105950006B882A88C8212820FEF77BFDECA0CDE9C2
:1059600000406B882A88C8217820FEF772FDE9A0E4
:10597000CDE900406B882A88DC212820FEF769FDEC
:10598000E5A0CDE900406B882A88DC217820FEF76D
:1059900060FDE2A0CDE900406B882A88F021282034
:1059A000FEF757FD04230094A0214020039AFEF740
:1059B000BAFC04230094A0219020049AFEF7B3FCC3
:1059C00004233A46B42140200094FEF7ACFC0423A3
:1059D0003246B42190200094FEF7A5FC04234246F1
:1059E000C82140200094FEF79EFC04234A46C821AB
:1059F00090200094FEF797FC04235246DC214020BF
:105A00000094FEF790FC04235A46DC219020009479
:105A1000FEF789FC00940323F0216020149AFEF71E
:105A200082FC07B0BDE8F08F2DE9F04F2DED0C8B17
:105A300089B0002400251F20AE4E3080B9494FF6B2
:105A4000FF78A1F800804046FBF721FF4FF478472C
:105A500037804046FBF71BFFA246A6F800A0B248DD
:105A60004FF01008282100686423CDE90080A022AF
:105A70000846FEF7EEFC14213A460846FFF7F9FD0A
:105A8000DFF8A89289F820A09FEDA90A89ED090AFC
:105A90009FEDA89B9FEDA9BB9FEDAAAB974E4FF042
:105AA000900AA9F10407D9F804100120884799F851
:105AB00020000121B1EB901F4BD1002520F04000C8
:105AC00089F8200005A8B9F80C1020F8241000EB84
:105AD0008400B9F816104180641CE4B2012C06D091
